{
  "contractName": "GameToken",
  "abi": [
    {
      "inputs": [],
      "stateMutability": "nonpayable",
      "type": "constructor"
    },
    {
      "anonymous": false,
      "inputs": [
        {
          "indexed": true,
          "internalType": "address",
          "name": "owner",
          "type": "address"
        },
        {
          "indexed": true,
          "internalType": "address",
          "name": "approved",
          "type": "address"
        },
        {
          "indexed": true,
          "internalType": "uint256",
          "name": "tokenId",
          "type": "uint256"
        }
      ],
      "name": "Approval",
      "type": "event"
    },
    {
      "anonymous": false,
      "inputs": [
        {
          "indexed": true,
          "internalType": "address",
          "name": "owner",
          "type": "address"
        },
        {
          "indexed": true,
          "internalType": "address",
          "name": "operator",
          "type": "address"
        },
        {
          "indexed": false,
          "internalType": "bool",
          "name": "approved",
          "type": "bool"
        }
      ],
      "name": "ApprovalForAll",
      "type": "event"
    },
    {
      "anonymous": false,
      "inputs": [
        {
          "indexed": true,
          "internalType": "address",
          "name": "previousOwner",
          "type": "address"
        },
        {
          "indexed": true,
          "internalType": "address",
          "name": "newOwner",
          "type": "address"
        }
      ],
      "name": "OwnershipTransferred",
      "type": "event"
    },
    {
      "anonymous": false,
      "inputs": [
        {
          "indexed": false,
          "internalType": "address",
          "name": "account",
          "type": "address"
        }
      ],
      "name": "Paused",
      "type": "event"
    },
    {
      "anonymous": false,
      "inputs": [
        {
          "indexed": true,
          "internalType": "address",
          "name": "from",
          "type": "address"
        },
        {
          "indexed": true,
          "internalType": "address",
          "name": "to",
          "type": "address"
        },
        {
          "indexed": true,
          "internalType": "uint256",
          "name": "tokenId",
          "type": "uint256"
        }
      ],
      "name": "Transfer",
      "type": "event"
    },
    {
      "anonymous": false,
      "inputs": [
        {
          "indexed": false,
          "internalType": "address",
          "name": "account",
          "type": "address"
        }
      ],
      "name": "Unpaused",
      "type": "event"
    },
    {
      "inputs": [
        {
          "internalType": "address",
          "name": "to",
          "type": "address"
        },
        {
          "internalType": "uint256",
          "name": "tokenId",
          "type": "uint256"
        }
      ],
      "name": "approve",
      "outputs": [],
      "stateMutability": "nonpayable",
      "type": "function"
    },
    {
      "inputs": [
        {
          "internalType": "address",
          "name": "owner",
          "type": "address"
        }
      ],
      "name": "balanceOf",
      "outputs": [
        {
          "internalType": "uint256",
          "name": "",
          "type": "uint256"
        }
      ],
      "stateMutability": "view",
      "type": "function",
      "constant": true
    },
    {
      "inputs": [
        {
          "internalType": "uint256",
          "name": "tokenId",
          "type": "uint256"
        }
      ],
      "name": "getApproved",
      "outputs": [
        {
          "internalType": "address",
          "name": "",
          "type": "address"
        }
      ],
      "stateMutability": "view",
      "type": "function",
      "constant": true
    },
    {
      "inputs": [
        {
          "internalType": "address",
          "name": "owner",
          "type": "address"
        },
        {
          "internalType": "address",
          "name": "operator",
          "type": "address"
        }
      ],
      "name": "isApprovedForAll",
      "outputs": [
        {
          "internalType": "bool",
          "name": "",
          "type": "bool"
        }
      ],
      "stateMutability": "view",
      "type": "function",
      "constant": true
    },
    {
      "inputs": [],
      "name": "name",
      "outputs": [
        {
          "internalType": "string",
          "name": "",
          "type": "string"
        }
      ],
      "stateMutability": "view",
      "type": "function",
      "constant": true
    },
    {
      "inputs": [],
      "name": "owner",
      "outputs": [
        {
          "internalType": "address",
          "name": "",
          "type": "address"
        }
      ],
      "stateMutability": "view",
      "type": "function",
      "constant": true
    },
    {
      "inputs": [
        {
          "internalType": "uint256",
          "name": "tokenId",
          "type": "uint256"
        }
      ],
      "name": "ownerOf",
      "outputs": [
        {
          "internalType": "address",
          "name": "",
          "type": "address"
        }
      ],
      "stateMutability": "view",
      "type": "function",
      "constant": true
    },
    {
      "inputs": [],
      "name": "paused",
      "outputs": [
        {
          "internalType": "bool",
          "name": "",
          "type": "bool"
        }
      ],
      "stateMutability": "view",
      "type": "function",
      "constant": true
    },
    {
      "inputs": [],
      "name": "renounceOwnership",
      "outputs": [],
      "stateMutability": "nonpayable",
      "type": "function"
    },
    {
      "inputs": [
        {
          "internalType": "address",
          "name": "from",
          "type": "address"
        },
        {
          "internalType": "address",
          "name": "to",
          "type": "address"
        },
        {
          "internalType": "uint256",
          "name": "tokenId",
          "type": "uint256"
        }
      ],
      "name": "safeTransferFrom",
      "outputs": [],
      "stateMutability": "nonpayable",
      "type": "function"
    },
    {
      "inputs": [
        {
          "internalType": "address",
          "name": "from",
          "type": "address"
        },
        {
          "internalType": "address",
          "name": "to",
          "type": "address"
        },
        {
          "internalType": "uint256",
          "name": "tokenId",
          "type": "uint256"
        },
        {
          "internalType": "bytes",
          "name": "data",
          "type": "bytes"
        }
      ],
      "name": "safeTransferFrom",
      "outputs": [],
      "stateMutability": "nonpayable",
      "type": "function"
    },
    {
      "inputs": [
        {
          "internalType": "address",
          "name": "operator",
          "type": "address"
        },
        {
          "internalType": "bool",
          "name": "approved",
          "type": "bool"
        }
      ],
      "name": "setApprovalForAll",
      "outputs": [],
      "stateMutability": "nonpayable",
      "type": "function"
    },
    {
      "inputs": [
        {
          "internalType": "bytes4",
          "name": "interfaceId",
          "type": "bytes4"
        }
      ],
      "name": "supportsInterface",
      "outputs": [
        {
          "internalType": "bool",
          "name": "",
          "type": "bool"
        }
      ],
      "stateMutability": "view",
      "type": "function",
      "constant": true
    },
    {
      "inputs": [],
      "name": "symbol",
      "outputs": [
        {
          "internalType": "string",
          "name": "",
          "type": "string"
        }
      ],
      "stateMutability": "view",
      "type": "function",
      "constant": true
    },
    {
      "inputs": [
        {
          "internalType": "uint256",
          "name": "index",
          "type": "uint256"
        }
      ],
      "name": "tokenByIndex",
      "outputs": [
        {
          "internalType": "uint256",
          "name": "",
          "type": "uint256"
        }
      ],
      "stateMutability": "view",
      "type": "function",
      "constant": true
    },
    {
      "inputs": [
        {
          "internalType": "address",
          "name": "owner",
          "type": "address"
        },
        {
          "internalType": "uint256",
          "name": "index",
          "type": "uint256"
        }
      ],
      "name": "tokenOfOwnerByIndex",
      "outputs": [
        {
          "internalType": "uint256",
          "name": "",
          "type": "uint256"
        }
      ],
      "stateMutability": "view",
      "type": "function",
      "constant": true
    },
    {
      "inputs": [
        {
          "internalType": "uint256",
          "name": "tokenId",
          "type": "uint256"
        }
      ],
      "name": "tokenURI",
      "outputs": [
        {
          "internalType": "string",
          "name": "",
          "type": "string"
        }
      ],
      "stateMutability": "view",
      "type": "function",
      "constant": true
    },
    {
      "inputs": [],
      "name": "totalSupply",
      "outputs": [
        {
          "internalType": "uint256",
          "name": "",
          "type": "uint256"
        }
      ],
      "stateMutability": "view",
      "type": "function",
      "constant": true
    },
    {
      "inputs": [
        {
          "internalType": "address",
          "name": "from",
          "type": "address"
        },
        {
          "internalType": "address",
          "name": "to",
          "type": "address"
        },
        {
          "internalType": "uint256",
          "name": "tokenId",
          "type": "uint256"
        }
      ],
      "name": "transferFrom",
      "outputs": [],
      "stateMutability": "nonpayable",
      "type": "function"
    },
    {
      "inputs": [
        {
          "internalType": "address",
          "name": "newOwner",
          "type": "address"
        }
      ],
      "name": "transferOwnership",
      "outputs": [],
      "stateMutability": "nonpayable",
      "type": "function"
    },
    {
      "inputs": [
        {
          "internalType": "address",
          "name": "to",
          "type": "address"
        }
      ],
      "name": "safeMint",
      "outputs": [],
      "stateMutability": "nonpayable",
      "type": "function"
    },
    {
      "inputs": [
        {
          "internalType": "uint256",
          "name": "index",
          "type": "uint256"
        }
      ],
      "name": "getTokenIdByIndex",
      "outputs": [
        {
          "internalType": "uint256",
          "name": "",
          "type": "uint256"
        }
      ],
      "stateMutability": "view",
      "type": "function",
      "constant": true
    },
    {
      "inputs": [
        {
          "internalType": "address",
          "name": "owner",
          "type": "address"
        },
        {
          "internalType": "uint256",
          "name": "index",
          "type": "uint256"
        }
      ],
      "name": "getTokenIdByOwner",
      "outputs": [
        {
          "internalType": "uint256",
          "name": "",
          "type": "uint256"
        }
      ],
      "stateMutability": "view",
      "type": "function",
      "constant": true
    },
    {
      "inputs": [
        {
          "internalType": "uint256",
          "name": "index",
          "type": "uint256"
        }
      ],
      "name": "getOwnerByIndex",
      "outputs": [
        {
          "internalType": "address",
          "name": "",
          "type": "address"
        }
      ],
      "stateMutability": "view",
      "type": "function",
      "constant": true
    },
    {
      "inputs": [],
      "name": "pause",
      "outputs": [],
      "stateMutability": "nonpayable",
      "type": "function"
    },
    {
      "inputs": [],
      "name": "unpause",
      "outputs": [],
      "stateMutability": "nonpayable",
      "type": "function"
    }
  ],
  "bytecode": "0x60806040523480156200001157600080fd5b506040518060400160405280600a81526020017f47616d6520546f6b656e000000000000000000000000000000000000000000008152506040518060400160405280600481526020017f47414d45000000000000000000000000000000000000000000000000000000008152508160009080519060200190620000969291906200028c565b508060019080519060200190620000af9291906200028c565b5050506000600a60006101000a81548160ff021916908315150217905550620000ed620000e16200010360201b60201c565b6200010b60201b60201c565b620000fd620001d160201b60201c565b62000424565b600033905090565b6000600a60019054906101000a900473ffffffffffffffffffffffffffffffffffffffff16905081600a60016101000a81548173ffffffffffffffffffffffffffffffffffffffff021916908373ffffffffffffffffffffffffffffffffffffffff1602179055508173ffffffffffffffffffffffffffffffffffffffff168173ffffffffffffffffffffffffffffffffffffffff167f8be0079c531659141344cd1fd0a4f28419497f9722a3daafe3b4186f6b6457e060405160405180910390a35050565b620001e16200010360201b60201c565b73ffffffffffffffffffffffffffffffffffffffff16620002076200026260201b60201c565b73ffffffffffffffffffffffffffffffffffffffff161462000260576040517f08c379a000000000000000000000000000000000000000000000000000000000815260040162000257906200039d565b60405180910390fd5b565b6000600a60019054906101000a900473ffffffffffffffffffffffffffffffffffffffff16905090565b8280546200029a90620003ee565b90600052602060002090601f016020900481019282620002be57600085556200030a565b82601f10620002d957805160ff19168380011785556200030a565b828001600101855582156200030a579182015b8281111562000309578251825591602001919060010190620002ec565b5b5090506200031991906200031d565b5090565b5b80821115620003385760008160009055506001016200031e565b5090565b600082825260208201905092915050565b7f4f776e61626c653a2063616c6c6572206973206e6f7420746865206f776e6572600082015250565b6000620003856020836200033c565b915062000392826200034d565b602082019050919050565b60006020820190508181036000830152620003b88162000376565b9050919050565b7f4e487b7100000000000000000000000000000000000000000000000000000000600052602260045260246000fd5b600060028204905060018216806200040757607f821691505b602082108114156200041e576200041d620003bf565b5b50919050565b6138dd80620004346000396000f3fe608060405234801561001057600080fd5b506004361061018e5760003560e01c80635c975abb116100de57806395d89b4111610097578063c87b56dd11610071578063c87b56dd1461046f578063e985e9c51461049f578063ea720f88146104cf578063f2fde38b146104ff5761018e565b806395d89b4114610419578063a22cb46514610437578063b88d4fde146104535761018e565b80635c975abb146103695780636352211e1461038757806370a08231146103b7578063715018a6146103e75780638456cb59146103f15780638da5cb5b146103fb5761018e565b806323b872dd1161014b57806340d097c31161012557806340d097c3146102d157806342842e0e146102ed57806349f202ff146103095780634f6ccce7146103395761018e565b806323b872dd1461027b5780632f745c59146102975780633f4ba83a146102c75761018e565b806301ffc9a71461019357806306fdde03146101c3578063081812fc146101e1578063095ea7b31461021157806318160ddd1461022d5780631b732d461461024b575b600080fd5b6101ad60048036038101906101a89190612654565b61051b565b6040516101ba919061269c565b60405180910390f35b6101cb610595565b6040516101d89190612750565b60405180910390f35b6101fb60048036038101906101f691906127a8565b610627565b6040516102089190612816565b60405180910390f35b61022b6004803603810190610226919061285d565b61066d565b005b610235610785565b60405161024291906128ac565b60405180910390f35b610265600480360381019061026091906127a8565b610792565b6040516102729190612816565b60405180910390f35b610295600480360381019061029091906128c7565b6107fb565b005b6102b160048036038101906102ac919061285d565b61085b565b6040516102be91906128ac565b60405180910390f35b6102cf610900565b005b6102eb60048036038101906102e6919061291a565b610912565b005b610307600480360381019061030291906128c7565b610940565b005b610323600480360381019061031e91906127a8565b610960565b60405161033091906128ac565b60405180910390f35b610353600480360381019061034e91906127a8565b6109bb565b60405161036091906128ac565b60405180910390f35b610371610a2c565b60405161037e919061269c565b60405180910390f35b6103a1600480360381019061039c91906127a8565b610a43565b6040516103ae9190612816565b60405180910390f35b6103d160048036038101906103cc919061291a565b610aca565b6040516103de91906128ac565b60405180910390f35b6103ef610b82565b005b6103f9610b96565b005b610403610ba8565b6040516104109190612816565b60405180910390f35b610421610bd2565b60405161042e9190612750565b60405180910390f35b610451600480360381019061044c9190612973565b610c64565b005b61046d60048036038101906104689190612ae8565b610c7a565b005b610489600480360381019061048491906127a8565b610cdc565b6040516104969190612750565b60405180910390f35b6104b960048036038101906104b49190612b6b565b610d44565b6040516104c6919061269c565b60405180910390f35b6104e960048036038101906104e4919061285d565b610dd8565b6040516104f691906128ac565b60405180910390f35b6105196004803603810190610514919061291a565b610e36565b005b60007f780e9d63000000000000000000000000000000000000000000000000000000007bffffffffffffffffffffffffffffffffffffffffffffffffffffffff1916827bffffffffffffffffffffffffffffffffffffffffffffffffffffffff1916148061058e575061058d82610eba565b5b9050919050565b6060600080546105a490612bda565b80601f01602080910402602001604051908101604052809291908181526020018280546105d090612bda565b801561061d5780601f106105f25761010080835404028352916020019161061d565b820191906000526020600020905b81548152906001019060200180831161060057829003601f168201915b5050505050905090565b600061063282610f9c565b6004600083815260200190815260200160002060009054906101000a900473ffffffffffffffffffffffffffffffffffffffff169050919050565b600061067882610a43565b90508073ffffffffffffffffffffffffffffffffffffffff168373ffffffffffffffffffffffffffffffffffffffff1614156106e9576040517f08c379a00000000000000000000000000000000000000000000000000000000081526004016106e090612c7e565b60405180910390fd5b8073ffffffffffffffffffffffffffffffffffffffff16610708610fe7565b73ffffffffffffffffffffffffffffffffffffffff161480610737575061073681610731610fe7565b610d44565b5b610776576040517f08c379a000000000000000000000000000000000000000000000000000000000815260040161076d90612d10565b60405180910390fd5b6107808383610fef565b505050565b6000600880549050905090565b600061079c610785565b82106107dd576040517f08c379a00000000000000000000000000000000000000000000000000000000081526004016107d490612d7c565b60405180910390fd5b60006107e8836109bb565b90506107f381610a43565b915050919050565b61080c610806610fe7565b826110a8565b61084b576040517f08c379a000000000000000000000000000000000000000000000000000000000815260040161084290612e0e565b60405180910390fd5b61085683838361113d565b505050565b600061086683610aca565b82106108a7576040517f08c379a000000000000000000000000000000000000000000000000000000000815260040161089e90612ea0565b60405180910390fd5b600660008473ffffffffffffffffffffffffffffffffffffffff1673ffffffffffffffffffffffffffffffffffffffff168152602001908152602001600020600083815260200190815260200160002054905092915050565b610908611437565b6109106114b5565b565b61091a611437565b6000610926600b611518565b9050610932600b611526565b61093c828261153c565b5050565b61095b83838360405180602001604052806000815250610c7a565b505050565b600061096a610785565b82106109ab576040517f08c379a00000000000000000000000000000000000000000000000000000000081526004016109a290612f0c565b60405180910390fd5b6109b4826109bb565b9050919050565b60006109c5610785565b8210610a06576040517f08c379a00000000000000000000000000000000000000000000000000000000081526004016109fd90612f9e565b60405180910390fd5b60088281548110610a1a57610a19612fbe565b5b90600052602060002001549050919050565b6000600a60009054906101000a900460ff16905090565b600080610a4f8361155a565b9050600073ffffffffffffffffffffffffffffffffffffffff168173ffffffffffffffffffffffffffffffffffffffff161415610ac1576040517f08c379a0000000000000000000000000000000000000000000000000000000008152600401610ab890613039565b60405180910390fd5b80915050919050565b60008073ffffffffffffffffffffffffffffffffffffffff168273ffffffffffffffffffffffffffffffffffffffff161415610b3b576040517f08c379a0000000000000000000000000000000000000000000000000000000008152600401610b32906130cb565b60405180910390fd5b600360008373ffffffffffffffffffffffffffffffffffffffff1673ffffffffffffffffffffffffffffffffffffffff168152602001908152602001600020549050919050565b610b8a611437565b610b946000611597565b565b610b9e611437565b610ba661165d565b565b6000600a60019054906101000a900473ffffffffffffffffffffffffffffffffffffffff16905090565b606060018054610be190612bda565b80601f0160208091040260200160405190810160405280929190818152602001828054610c0d90612bda565b8015610c5a5780601f10610c2f57610100808354040283529160200191610c5a565b820191906000526020600020905b815481529060010190602001808311610c3d57829003601f168201915b5050505050905090565b610c76610c6f610fe7565b83836116c0565b5050565b610c8b610c85610fe7565b836110a8565b610cca576040517f08c379a0000000000000000000000000000000000000000000000000000000008152600401610cc190612e0e565b60405180910390fd5b610cd68484848461182d565b50505050565b6060610ce782610f9c565b6000610cf1611889565b90506000815111610d115760405180602001604052806000815250610d3c565b80610d1b846118a0565b604051602001610d2c929190613127565b6040516020818303038152906040525b915050919050565b6000600560008473ffffffffffffffffffffffffffffffffffffffff1673ffffffffffffffffffffffffffffffffffffffff16815260200190815260200160002060008373ffffffffffffffffffffffffffffffffffffffff1673ffffffffffffffffffffffffffffffffffffffff16815260200190815260200160002060009054906101000a900460ff16905092915050565b6000610de383610aca565b8210610e24576040517f08c379a0000000000000000000000000000000000000000000000000000000008152600401610e1b90612d7c565b60405180910390fd5b610e2e838361085b565b905092915050565b610e3e611437565b600073ffffffffffffffffffffffffffffffffffffffff168173ffffffffffffffffffffffffffffffffffffffff161415610eae576040517f08c379a0000000000000000000000000000000000000000000000000000000008152600401610ea5906131bd565b60405180910390fd5b610eb781611597565b50565b60007f80ac58cd000000000000000000000000000000000000000000000000000000007bffffffffffffffffffffffffffffffffffffffffffffffffffffffff1916827bffffffffffffffffffffffffffffffffffffffffffffffffffffffff19161480610f8557507f5b5e139f000000000000000000000000000000000000000000000000000000007bffffffffffffffffffffffffffffffffffffffffffffffffffffffff1916827bffffffffffffffffffffffffffffffffffffffffffffffffffffffff1916145b80610f955750610f9482611978565b5b9050919050565b610fa5816119e2565b610fe4576040517f08c379a0000000000000000000000000000000000000000000000000000000008152600401610fdb90613039565b60405180910390fd5b50565b600033905090565b816004600083815260200190815260200160002060006101000a81548173ffffffffffffffffffffffffffffffffffffffff021916908373ffffffffffffffffffffffffffffffffffffffff160217905550808273ffffffffffffffffffffffffffffffffffffffff1661106283610a43565b73ffffffffffffffffffffffffffffffffffffffff167f8c5be1e5ebec7d5bd14f71427d1e84f3dd0314c0f7b2291e5b200ac8c7c3b92560405160405180910390a45050565b6000806110b483610a43565b90508073ffffffffffffffffffffffffffffffffffffffff168473ffffffffffffffffffffffffffffffffffffffff1614806110f657506110f58185610d44565b5b8061113457508373ffffffffffffffffffffffffffffffffffffffff1661111c84610627565b73ffffffffffffffffffffffffffffffffffffffff16145b91505092915050565b8273ffffffffffffffffffffffffffffffffffffffff1661115d82610a43565b73ffffffffffffffffffffffffffffffffffffffff16146111b3576040517f08c379a00000000000000000000000000000000000000000000000000000000081526004016111aa9061324f565b60405180910390fd5b600073ffffffffffffffffffffffffffffffffffffffff168273ffffffffffffffffffffffffffffffffffffffff161415611223576040517f08c379a000000000000000000000000000000000000000000000000000000000815260040161121a906132e1565b60405180910390fd5b6112308383836001611a23565b8273ffffffffffffffffffffffffffffffffffffffff1661125082610a43565b73ffffffffffffffffffffffffffffffffffffffff16146112a6576040517f08c379a000000000000000000000000000000000000000000000000000000000815260040161129d9061324f565b60405180910390fd5b6004600082815260200190815260200160002060006101000a81549073ffffffffffffffffffffffffffffffffffffffff02191690556001600360008573ffffffffffffffffffffffffffffffffffffffff1673ffffffffffffffffffffffffffffffffffffffff168152602001908152602001600020600082825403925050819055506001600360008473ffffffffffffffffffffffffffffffffffffffff1673ffffffffffffffffffffffffffffffffffffffff16815260200190815260200160002060008282540192505081905550816002600083815260200190815260200160002060006101000a81548173ffffffffffffffffffffffffffffffffffffffff021916908373ffffffffffffffffffffffffffffffffffffffff160217905550808273ffffffffffffffffffffffffffffffffffffffff168473ffffffffffffffffffffffffffffffffffffffff167fddf252ad1be2c89b69c2b068fc378daa952ba7f163c4a11628f55a4df523b3ef60405160405180910390a46114328383836001611a3d565b505050565b61143f610fe7565b73ffffffffffffffffffffffffffffffffffffffff1661145d610ba8565b73ffffffffffffffffffffffffffffffffffffffff16146114b3576040517f08c379a00000000000000000000000000000000000000000000000000000000081526004016114aa9061334d565b60405180910390fd5b565b6114bd611a43565b6000600a60006101000a81548160ff0219169083151502179055507f5db9ee0a495bf2e6ff9c91a7834c1ba4fdd244a5e8aa4e537bd38aeae4b073aa611501610fe7565b60405161150e9190612816565b60405180910390a1565b600081600001549050919050565b6001816000016000828254019250508190555050565b611556828260405180602001604052806000815250611a8c565b5050565b60006002600083815260200190815260200160002060009054906101000a900473ffffffffffffffffffffffffffffffffffffffff169050919050565b6000600a60019054906101000a900473ffffffffffffffffffffffffffffffffffffffff16905081600a60016101000a81548173ffffffffffffffffffffffffffffffffffffffff021916908373ffffffffffffffffffffffffffffffffffffffff1602179055508173ffffffffffffffffffffffffffffffffffffffff168173ffffffffffffffffffffffffffffffffffffffff167f8be0079c531659141344cd1fd0a4f28419497f9722a3daafe3b4186f6b6457e060405160405180910390a35050565b611665611ae7565b6001600a60006101000a81548160ff0219169083151502179055507f62e78cea01bee320cd4e420270b5ea74000d11b0c9f74754ebdbfc544b05a2586116a9610fe7565b6040516116b69190612816565b60405180910390a1565b8173ffffffffffffffffffffffffffffffffffffffff168373ffffffffffffffffffffffffffffffffffffffff16141561172f576040517f08c379a0000000000000000000000000000000000000000000000000000000008152600401611726906133b9565b60405180910390fd5b80600560008573ffffffffffffffffffffffffffffffffffffffff1673ffffffffffffffffffffffffffffffffffffffff16815260200190815260200160002060008473ffffffffffffffffffffffffffffffffffffffff1673ffffffffffffffffffffffffffffffffffffffff16815260200190815260200160002060006101000a81548160ff0219169083151502179055508173ffffffffffffffffffffffffffffffffffffffff168373ffffffffffffffffffffffffffffffffffffffff167f17307eab39ab6107e8899845ad3d59bd9653f200f220920489ca2b5937696c3183604051611820919061269c565b60405180910390a3505050565b61183884848461113d565b61184484848484611b31565b611883576040517f08c379a000000000000000000000000000000000000000000000000000000000815260040161187a9061344b565b60405180910390fd5b50505050565b606060405180602001604052806000815250905090565b6060600060016118af84611cc8565b01905060008167ffffffffffffffff8111156118ce576118cd6129bd565b5b6040519080825280601f01601f1916602001820160405280156119005781602001600182028036833780820191505090505b509050600082602001820190505b60011561196d578080600190039150507f3031323334353637383961626364656600000000000000000000000000000000600a86061a8153600a85816119575761195661346b565b5b04945060008514156119685761196d565b61190e565b819350505050919050565b60007f01ffc9a7000000000000000000000000000000000000000000000000000000007bffffffffffffffffffffffffffffffffffffffffffffffffffffffff1916827bffffffffffffffffffffffffffffffffffffffffffffffffffffffff1916149050919050565b60008073ffffffffffffffffffffffffffffffffffffffff16611a048361155a565b73ffffffffffffffffffffffffffffffffffffffff1614159050919050565b611a2b611ae7565b611a3784848484611e1b565b50505050565b50505050565b611a4b610a2c565b611a8a576040517f08c379a0000000000000000000000000000000000000000000000000000000008152600401611a81906134e6565b60405180910390fd5b565b611a968383611f7b565b611aa36000848484611b31565b611ae2576040517f08c379a0000000000000000000000000000000000000000000000000000000008152600401611ad99061344b565b60405180910390fd5b505050565b611aef610a2c565b15611b2f576040517f08c379a0000000000000000000000000000000000000000000000000000000008152600401611b2690613552565b60405180910390fd5b565b6000611b528473ffffffffffffffffffffffffffffffffffffffff16612199565b15611cbb578373ffffffffffffffffffffffffffffffffffffffff1663150b7a02611b7b610fe7565b8786866040518563ffffffff1660e01b8152600401611b9d94939291906135c7565b602060405180830381600087803b158015611bb757600080fd5b505af1925050508015611be857506040513d601f19601f82011682018060405250810190611be59190613628565b60015b611c6b573d8060008114611c18576040519150601f19603f3d011682016040523d82523d6000602084013e611c1d565b606091505b50600081511415611c63576040517f08c379a0000000000000000000000000000000000000000000000000000000008152600401611c5a9061344b565b60405180910390fd5b805181602001fd5b63150b7a0260e01b7bffffffffffffffffffffffffffffffffffffffffffffffffffffffff1916817bffffffffffffffffffffffffffffffffffffffffffffffffffffffff191614915050611cc0565b600190505b949350505050565b600080600090507a184f03e93ff9f4daa797ed6e38ed64bf6a1f0100000000000000008310611d26577a184f03e93ff9f4daa797ed6e38ed64bf6a1f0100000000000000008381611d1c57611d1b61346b565b5b0492506040810190505b6d04ee2d6d415b85acef81000000008310611d63576d04ee2d6d415b85acef81000000008381611d5957611d5861346b565b5b0492506020810190505b662386f26fc100008310611d9257662386f26fc100008381611d8857611d8761346b565b5b0492506010810190505b6305f5e1008310611dbb576305f5e1008381611db157611db061346b565b5b0492506008810190505b6127108310611de0576127108381611dd657611dd561346b565b5b0492506004810190505b60648310611e035760648381611df957611df861346b565b5b0492506002810190505b600a8310611e12576001810190505b80915050919050565b611e27848484846121bc565b6001811115611e6b576040517f08c379a0000000000000000000000000000000000000000000000000000000008152600401611e62906136c7565b60405180910390fd5b6000829050600073ffffffffffffffffffffffffffffffffffffffff168573ffffffffffffffffffffffffffffffffffffffff161415611eb357611eae816122e2565b611ef2565b8373ffffffffffffffffffffffffffffffffffffffff168573ffffffffffffffffffffffffffffffffffffffff1614611ef157611ef0858261232b565b5b5b600073ffffffffffffffffffffffffffffffffffffffff168473ffffffffffffffffffffffffffffffffffffffff161415611f3557611f3081612498565b611f74565b8473ffffffffffffffffffffffffffffffffffffffff168473ffffffffffffffffffffffffffffffffffffffff1614611f7357611f728482612569565b5b5b5050505050565b600073ffffffffffffffffffffffffffffffffffffffff168273ffffffffffffffffffffffffffffffffffffffff161415611feb576040517f08c379a0000000000000000000000000000000000000000000000000000000008152600401611fe290613733565b60405180910390fd5b611ff4816119e2565b15612034576040517f08c379a000000000000000000000000000000000000000000000000000000000815260040161202b9061379f565b60405180910390fd5b612042600083836001611a23565b61204b816119e2565b1561208b576040517f08c379a00000000000000000000000000000000000000000000000000000000081526004016120829061379f565b60405180910390fd5b6001600360008473ffffffffffffffffffffffffffffffffffffffff1673ffffffffffffffffffffffffffffffffffffffff16815260200190815260200160002060008282540192505081905550816002600083815260200190815260200160002060006101000a81548173ffffffffffffffffffffffffffffffffffffffff021916908373ffffffffffffffffffffffffffffffffffffffff160217905550808273ffffffffffffffffffffffffffffffffffffffff16600073ffffffffffffffffffffffffffffffffffffffff167fddf252ad1be2c89b69c2b068fc378daa952ba7f163c4a11628f55a4df523b3ef60405160405180910390a4612195600083836001611a3d565b5050565b6000808273ffffffffffffffffffffffffffffffffffffffff163b119050919050565b60018111156122dc57600073ffffffffffffffffffffffffffffffffffffffff168473ffffffffffffffffffffffffffffffffffffffff16146122505780600360008673ffffffffffffffffffffffffffffffffffffffff1673ffffffffffffffffffffffffffffffffffffffff168152602001908152602001600020600082825461224891906137ee565b925050819055505b600073ffffffffffffffffffffffffffffffffffffffff168373ffffffffffffffffffffffffffffffffffffffff16146122db5780600360008573ffffffffffffffffffffffffffffffffffffffff1673ffffffffffffffffffffffffffffffffffffffff16815260200190815260200160002060008282546122d39190613822565b925050819055505b5b50505050565b6008805490506009600083815260200190815260200160002081905550600881908060018154018082558091505060019003906000526020600020016000909190919091505550565b6000600161233884610aca565b61234291906137ee565b9050600060076000848152602001908152602001600020549050818114612427576000600660008673ffffffffffffffffffffffffffffffffffffffff1673ffffffffffffffffffffffffffffffffffffffff168152602001908152602001600020600084815260200190815260200160002054905080600660008773ffffffffffffffffffffffffffffffffffffffff1673ffffffffffffffffffffffffffffffffffffffff168152602001908152602001600020600084815260200190815260200160002081905550816007600083815260200190815260200160002081905550505b6007600084815260200190815260200160002060009055600660008573ffffffffffffffffffffffffffffffffffffffff1673ffffffffffffffffffffffffffffffffffffffff16815260200190815260200160002060008381526020019081526020016000206000905550505050565b600060016008805490506124ac91906137ee565b90506000600960008481526020019081526020016000205490506000600883815481106124dc576124db612fbe565b5b9060005260206000200154905080600883815481106124fe576124fd612fbe565b5b90600052602060002001819055508160096000838152602001908152602001600020819055506009600085815260200190815260200160002060009055600880548061254d5761254c613878565b5b6001900381819060005260206000200160009055905550505050565b600061257483610aca565b905081600660008573ffffffffffffffffffffffffffffffffffffffff1673ffffffffffffffffffffffffffffffffffffffff168152602001908152602001600020600083815260200190815260200160002081905550806007600084815260200190815260200160002081905550505050565b6000604051905090565b600080fd5b600080fd5b60007fffffffff0000000000000000000000000000000000000000000000000000000082169050919050565b612631816125fc565b811461263c57600080fd5b50565b60008135905061264e81612628565b92915050565b60006020828403121561266a576126696125f2565b5b60006126788482850161263f565b91505092915050565b60008115159050919050565b61269681612681565b82525050565b60006020820190506126b1600083018461268d565b92915050565b600081519050919050565b600082825260208201905092915050565b60005b838110156126f15780820151818401526020810190506126d6565b83811115612700576000848401525b50505050565b6000601f19601f8301169050919050565b6000612722826126b7565b61272c81856126c2565b935061273c8185602086016126d3565b61274581612706565b840191505092915050565b6000602082019050818103600083015261276a8184612717565b905092915050565b6000819050919050565b61278581612772565b811461279057600080fd5b50565b6000813590506127a28161277c565b92915050565b6000602082840312156127be576127bd6125f2565b5b60006127cc84828501612793565b91505092915050565b600073ffffffffffffffffffffffffffffffffffffffff82169050919050565b6000612800826127d5565b9050919050565b612810816127f5565b82525050565b600060208201905061282b6000830184612807565b92915050565b61283a816127f5565b811461284557600080fd5b50565b60008135905061285781612831565b92915050565b60008060408385031215612874576128736125f2565b5b600061288285828601612848565b925050602061289385828601612793565b9150509250929050565b6128a681612772565b82525050565b60006020820190506128c1600083018461289d565b92915050565b6000806000606084860312156128e0576128df6125f2565b5b60006128ee86828701612848565b93505060206128ff86828701612848565b925050604061291086828701612793565b9150509250925092565b6000602082840312156129305761292f6125f2565b5b600061293e84828501612848565b91505092915050565b61295081612681565b811461295b57600080fd5b50565b60008135905061296d81612947565b92915050565b6000806040838503121561298a576129896125f2565b5b600061299885828601612848565b92505060206129a98582860161295e565b9150509250929050565b600080fd5b600080fd5b7f4e487b7100000000000000000000000000000000000000000000000000000000600052604160045260246000fd5b6129f582612706565b810181811067ffffffffffffffff82111715612a1457612a136129bd565b5b80604052505050565b6000612a276125e8565b9050612a3382826129ec565b919050565b600067ffffffffffffffff821115612a5357612a526129bd565b5b612a5c82612706565b9050602081019050919050565b82818337600083830152505050565b6000612a8b612a8684612a38565b612a1d565b905082815260208101848484011115612aa757612aa66129b8565b5b612ab2848285612a69565b509392505050565b600082601f830112612acf57612ace6129b3565b5b8135612adf848260208601612a78565b91505092915050565b60008060008060808587031215612b0257612b016125f2565b5b6000612b1087828801612848565b9450506020612b2187828801612848565b9350506040612b3287828801612793565b925050606085013567ffffffffffffffff811115612b5357612b526125f7565b5b612b5f87828801612aba565b91505092959194509250565b60008060408385031215612b8257612b816125f2565b5b6000612b9085828601612848565b9250506020612ba185828601612848565b9150509250929050565b7f4e487b7100000000000000000000000000000000000000000000000000000000600052602260045260246000fd5b60006002820490506001821680612bf257607f821691505b60208210811415612c0657612c05612bab565b5b50919050565b7f4552433732313a20617070726f76616c20746f2063757272656e74206f776e6560008201527f7200000000000000000000000000000000000000000000000000000000000000602082015250565b6000612c686021836126c2565b9150612c7382612c0c565b604082019050919050565b60006020820190508181036000830152612c9781612c5b565b9050919050565b7f4552433732313a20617070726f76652063616c6c6572206973206e6f7420746f60008201527f6b656e206f776e6572206f7220617070726f76656420666f7220616c6c000000602082015250565b6000612cfa603d836126c2565b9150612d0582612c9e565b604082019050919050565b60006020820190508181036000830152612d2981612ced565b9050919050565b7f496e76616c696420746f6b656e20696e64657800000000000000000000000000600082015250565b6000612d666013836126c2565b9150612d7182612d30565b602082019050919050565b60006020820190508181036000830152612d9581612d59565b9050919050565b7f4552433732313a2063616c6c6572206973206e6f7420746f6b656e206f776e6560008201527f72206f7220617070726f76656400000000000000000000000000000000000000602082015250565b6000612df8602d836126c2565b9150612e0382612d9c565b604082019050919050565b60006020820190508181036000830152612e2781612deb565b9050919050565b7f455243373231456e756d657261626c653a206f776e657220696e646578206f7560008201527f74206f6620626f756e6473000000000000000000000000000000000000000000602082015250565b6000612e8a602b836126c2565b9150612e9582612e2e565b604082019050919050565b60006020820190508181036000830152612eb981612e7d565b9050919050565b7f496e76616c696420746f6b656e20696e64657821212100000000000000000000600082015250565b6000612ef66016836126c2565b9150612f0182612ec0565b602082019050919050565b60006020820190508181036000830152612f2581612ee9565b9050919050565b7f455243373231456e756d657261626c653a20676c6f62616c20696e646578206f60008201527f7574206f6620626f756e64730000000000000000000000000000000000000000602082015250565b6000612f88602c836126c2565b9150612f9382612f2c565b604082019050919050565b60006020820190508181036000830152612fb781612f7b565b9050919050565b7f4e487b7100000000000000000000000000000000000000000000000000000000600052603260045260246000fd5b7f4552433732313a20696e76616c696420746f6b656e2049440000000000000000600082015250565b60006130236018836126c2565b915061302e82612fed565b602082019050919050565b6000602082019050818103600083015261305281613016565b9050919050565b7f4552433732313a2061646472657373207a65726f206973206e6f74206120766160008201527f6c6964206f776e65720000000000000000000000000000000000000000000000602082015250565b60006130b56029836126c2565b91506130c082613059565b604082019050919050565b600060208201905081810360008301526130e4816130a8565b9050919050565b600081905092915050565b6000613101826126b7565b61310b81856130eb565b935061311b8185602086016126d3565b80840191505092915050565b600061313382856130f6565b915061313f82846130f6565b91508190509392505050565b7f4f776e61626c653a206e6577206f776e657220697320746865207a65726f206160008201527f6464726573730000000000000000000000000000000000000000000000000000602082015250565b60006131a76026836126c2565b91506131b28261314b565b604082019050919050565b600060208201905081810360008301526131d68161319a565b9050919050565b7f4552433732313a207472616e736665722066726f6d20696e636f72726563742060008201527f6f776e6572000000000000000000000000000000000000000000000000000000602082015250565b60006132396025836126c2565b9150613244826131dd565b604082019050919050565b600060208201905081810360008301526132688161322c565b9050919050565b7f4552433732313a207472616e7366657220746f20746865207a65726f2061646460008201527f7265737300000000000000000000000000000000000000000000000000000000602082015250565b60006132cb6024836126c2565b91506132d68261326f565b604082019050919050565b600060208201905081810360008301526132fa816132be565b9050919050565b7f4f776e61626c653a2063616c6c6572206973206e6f7420746865206f776e6572600082015250565b60006133376020836126c2565b915061334282613301565b602082019050919050565b600060208201905081810360008301526133668161332a565b9050919050565b7f4552433732313a20617070726f766520746f2063616c6c657200000000000000600082015250565b60006133a36019836126c2565b91506133ae8261336d565b602082019050919050565b600060208201905081810360008301526133d281613396565b9050919050565b7f4552433732313a207472616e7366657220746f206e6f6e20455243373231526560008201527f63656976657220696d706c656d656e7465720000000000000000000000000000602082015250565b60006134356032836126c2565b9150613440826133d9565b604082019050919050565b6000602082019050818103600083015261346481613428565b9050919050565b7f4e487b7100000000000000000000000000000000000000000000000000000000600052601260045260246000fd5b7f5061757361626c653a206e6f7420706175736564000000000000000000000000600082015250565b60006134d06014836126c2565b91506134db8261349a565b602082019050919050565b600060208201905081810360008301526134ff816134c3565b9050919050565b7f5061757361626c653a2070617573656400000000000000000000000000000000600082015250565b600061353c6010836126c2565b915061354782613506565b602082019050919050565b6000602082019050818103600083015261356b8161352f565b9050919050565b600081519050919050565b600082825260208201905092915050565b600061359982613572565b6135a3818561357d565b93506135b38185602086016126d3565b6135bc81612706565b840191505092915050565b60006080820190506135dc6000830187612807565b6135e96020830186612807565b6135f6604083018561289d565b8181036060830152613608818461358e565b905095945050505050565b60008151905061362281612628565b92915050565b60006020828403121561363e5761363d6125f2565b5b600061364c84828501613613565b91505092915050565b7f455243373231456e756d657261626c653a20636f6e736563757469766520747260008201527f616e7366657273206e6f7420737570706f727465640000000000000000000000602082015250565b60006136b16035836126c2565b91506136bc82613655565b604082019050919050565b600060208201905081810360008301526136e0816136a4565b9050919050565b7f4552433732313a206d696e7420746f20746865207a65726f2061646472657373600082015250565b600061371d6020836126c2565b9150613728826136e7565b602082019050919050565b6000602082019050818103600083015261374c81613710565b9050919050565b7f4552433732313a20746f6b656e20616c7265616479206d696e74656400000000600082015250565b6000613789601c836126c2565b915061379482613753565b602082019050919050565b600060208201905081810360008301526137b88161377c565b9050919050565b7f4e487b7100000000000000000000000000000000000000000000000000000000600052601160045260246000fd5b60006137f982612772565b915061380483612772565b925082821015613817576138166137bf565b5b828203905092915050565b600061382d82612772565b915061383883612772565b9250827fffffffffffffffffffffffffffffffffffffffffffffffffffffffffffffffff0382111561386d5761386c6137bf565b5b828201905092915050565b7f4e487b7100000000000000000000000000000000000000000000000000000000600052603160045260246000fdfea2646970667358221220c45c67d0e557371edbb7eea9956decd2624b686ef37dcd95ed4f85758aae8b7564736f6c63430008090033",
  "immutableReferences": {},
  "source": "pragma solidity ^0.8.9;\n\nimport \"@openzeppelin/contracts/token/ERC721/ERC721.sol\";\nimport \"@openzeppelin/contracts/access/Ownable.sol\";\nimport \"@openzeppelin/contracts/security/Pausable.sol\";\nimport \"@openzeppelin/contracts/utils/Counters.sol\";\nimport \"@openzeppelin/contracts/token/ERC721/extensions/ERC721Enumerable.sol\";\n\ncontract GameToken is ERC721Enumerable, Pausable, Ownable {\n   \n    using Counters for Counters.Counter;\n\n    Counters.Counter private _tokenIdCounter;\n\n    constructor() ERC721(\"Game Token\", \"GAME\") public onlyOwner{}\n\n    function safeMint(address to) public onlyOwner {\n        uint256 tokenId = _tokenIdCounter.current();\n        _tokenIdCounter.increment();\n        _safeMint(to, tokenId);\n    }    \n\n    function getTokenIdByIndex(uint256 index) public view returns (uint256) {\n        require(index < totalSupply(), \"Invalid token index!!!\");\n        return tokenByIndex(index);\n    }\n\n    function getTokenIdByOwner(address owner, uint256 index) public view returns (uint256) {\n        require(index < balanceOf(owner), \"Invalid token index\");\n        return tokenOfOwnerByIndex(owner, index);\n    }\n\n    function getOwnerByIndex(uint256 index) public view returns (address) {\n        require(index < totalSupply(), \"Invalid token index\");\n        uint256 tokenId = tokenByIndex(index);\n        return ownerOf(tokenId);\n    }\n\n        function pause() public onlyOwner {\n        _pause();\n    }\n\n    function unpause() public onlyOwner {\n        _unpause();\n    }\n\n    function _beforeTokenTransfer(address from, address to, uint256 tokenId, uint256 batchSize)\n        internal\n        whenNotPaused\n        override\n    {\n        super._beforeTokenTransfer(from, to, tokenId, batchSize);\n    }\n\n}",
  "sourcePath": "/home/zois/TowerDefenseNFTs/contracts/GameToken.sol",
  "compiler": {
    "name": "solc",
    "version": "0.8.9+commit.e5eed63a.Emscripten.clang"
  },
  "schemaVersion": "3.4.11",
  "updatedAt": "2023-02-18T23:28:45.525Z",
  "networkType": "ethereum",
  "devdoc": {
    "kind": "dev",
    "methods": {
      "approve(address,uint256)": {
        "details": "See {IERC721-approve}."
      },
      "balanceOf(address)": {
        "details": "See {IERC721-balanceOf}."
      },
      "getApproved(uint256)": {
        "details": "See {IERC721-getApproved}."
      },
      "isApprovedForAll(address,address)": {
        "details": "See {IERC721-isApprovedForAll}."
      },
      "name()": {
        "details": "See {IERC721Metadata-name}."
      },
      "owner()": {
        "details": "Returns the address of the current owner."
      },
      "ownerOf(uint256)": {
        "details": "See {IERC721-ownerOf}."
      },
      "paused()": {
        "details": "Returns true if the contract is paused, and false otherwise."
      },
      "renounceOwnership()": {
        "details": "Leaves the contract without owner. It will not be possible to call `onlyOwner` functions anymore. Can only be called by the current owner. NOTE: Renouncing ownership will leave the contract without an owner, thereby removing any functionality that is only available to the owner."
      },
      "safeTransferFrom(address,address,uint256)": {
        "details": "See {IERC721-safeTransferFrom}."
      },
      "safeTransferFrom(address,address,uint256,bytes)": {
        "details": "See {IERC721-safeTransferFrom}."
      },
      "setApprovalForAll(address,bool)": {
        "details": "See {IERC721-setApprovalForAll}."
      },
      "supportsInterface(bytes4)": {
        "details": "See {IERC165-supportsInterface}."
      },
      "symbol()": {
        "details": "See {IERC721Metadata-symbol}."
      },
      "tokenByIndex(uint256)": {
        "details": "See {IERC721Enumerable-tokenByIndex}."
      },
      "tokenOfOwnerByIndex(address,uint256)": {
        "details": "See {IERC721Enumerable-tokenOfOwnerByIndex}."
      },
      "tokenURI(uint256)": {
        "details": "See {IERC721Metadata-tokenURI}."
      },
      "totalSupply()": {
        "details": "See {IERC721Enumerable-totalSupply}."
      },
      "transferFrom(address,address,uint256)": {
        "details": "See {IERC721-transferFrom}."
      },
      "transferOwnership(address)": {
        "details": "Transfers ownership of the contract to a new account (`newOwner`). Can only be called by the current owner."
      }
    },
    "version": 1
  },
  "userdoc": {
    "kind": "user",
    "methods": {},
    "version": 1
  }
}